:0400000032EF00F0EB
:100008009DA601D001D008D09EA601D001D004D071
:100018009E96C7900DEC08F0F2AA01D001D007D047
:10002800F2A401D001D003D0F29424EC08F09DA0F2
:1000380001D001D007D09EA001D001D003D09E905E
:100048001BEC08F0A0A201D001D007D0A1A201D0DA
:1000580001D003D0A19220EC08F01100F8EF06F0CF
:10006800366A366A070E366401D0A3D036C030F03F
:10007800010E316E302A02D0D8903136302EFCD79E
:100088003150581401E193D096D8836E296A640ED2
:10009800286EB8EC07F03650CCEC05F03650020D5F
:1000A800F3500001900FD96EDA6A28C0DEFF29C02C
:1000B800DDFF296A640E286EB8EC07F03650070A8F
:1000C80004E19F51CE6F9EC0CFF000015CB209D011
:1000D80036C030F083D802D0D8903136302EFCD7D5
:1000E80064D075D83650020DF3500001900FE16EC0
:1000F800E26AE652DE52DD50E55C02E1DF50E75C81
:100108004AE23650020DF350900FD96EDA6ADECF0C
:1001180030F0DDCF31F05BD8DECF32F0DDCF33F019
:100128003050325C346E31503358356E36504E0F85
:10013800D96EDA6ADF50306E30C031F0326A315031
:10014800345C3250355827E336D81F1636C030F0A5
:1001580020C031F0302A02D0D8903132302EFCD76E
:1001680031A010D000015CA222D036C030F0010EC0
:10017800316E302A02D0D8903136302EFCD731502B
:100188001A1215D0200E345C030E355810E2000107
:100198005CB2EBD70CD00FD81A1636C030F01ED888
:1001A80002D0D8903136302EFCD731501F12362A63
:1001B80059D78368120036C030F0010E316E302AEC
:1001C80002D0D8903136302EFCD7311C1200365070
:1001D800020DF350010FD96EDA6A1200010E316E6A
:1001E800302A010C20EE39F0070EDE6AE82EFDD722
:1001F800390E286E000E296E0F0E296E5F0E2864C8
:10020800296A070E05EC06F039C011F03AC012F061
:100218003BC013F03CC014F03DC015F01150110A5A
:100228000EE11250220A0BE11350330A08E1145070
:10023800440A05E11550550A02E15C8001D05C9042
:100248003EC057F03FC01EF00001000E296EB80EE8
:10025800286E1E5005EC06F00BD0010E05D0040EDA
:1002680003D0020E01D0100E566E14D0566A12D06A
:100278005750F3E0010AF3E0030AF1E0010AF1E064
:10028800070AF1E0010AF2E0030AF0E0010AEEE0F1
:10029800AD0AECE100015CA003D0CAEC04F022D066
:1002A800406A06D04050CA0FD96EDA6ADF68402A21
:1002B80056C034F0356A020E3426000E352240C08E
:1002C80036F0376A3750800A386E3450365C35500D
:1002D800800A3858E7E30001CA0E286E5650020F0C
:1002E80092EC05F094869488948A8286828A828821
:1002F8001200E8CF38F0396A2E6A2F6A3068316800
:10030800366A376A396A65D8DECF2CF0DDCF2DF032
:100318002C502E5C2D502F5807E239C036F059D892
:10032800DECF2EF0DDCF2FF054D8DECF2CF0DDCF8E
:100338002DF030502C5C31502D5807E239C037F081
:1003480048D8DECF30F0DDCF31F0392A090E3964D4
:10035800DAD7326A336A346A356A365037182FE08A
:10036800396A3650396201D010D03750396201D01D
:100378000CD02FD8DECF2CF0DDCF2DF02C5032262C
:100388002D503322000E34223522392A090E3964C1
:10039800E8D732C02AF033C02BF034C02CF035C077
:1003A8002DF0040E05D0D8902D322C322B322A3263
:1003B800E82EF9D72AC028F02BC029F012003850AF
:1003C800140D0101DBEC02F0DECF28F0DDCF29F0BF
:1003D80012003850140D000E2A6E010E2B6EF350C9
:1003E8002A26000E2B223950020DF3502A24D96EEA
:1003F800000E2B20DA6E1200E8CF2BF068D8050E1D
:10040800285C000E295818E26DD802D0D8902936F9
:10041800282EFCD7291C58162BB007D02BC028F043
:100428004DD8F00E2916090E3DD02BC028F046D81D
:100438000F0E2916900E36D04AD8640E285C000E8E
:10044800295818E24FD802D0D8902936282EFCD740
:10045800291C58162BB007D02BC028F02FD8F00E27
:1004680029160A0E1FD02BC028F028D80F0E2916DF
:10047800A00E18D037D802D0D8902936282EFCD70D
:10048800295058122BB007D02BC028F017D8F00EDF
:100498002916080E07D02BC028F010D80F0E2916E1
:1004A800800E00D029122BC02AF0D8902A322A5068
:1004B800160FD96EDA6A2950DF121200D890283246
:1004C8002850160FD96EDA6ADF50296E12002B50A9
:1004D800020DF350700FD96EDA6ADECF28F0DDCF47
:1004E80029F012002BC028F0010E296E282A010CD1
:1004F8003D6A3D6A070E3D6401D057D066D802D0E8
:10050800D8903B363A2EFCD73B5058144CE08368C1
:100518005CD802D0D8903B363A2EFCD73B1C836E71
:10052800296A640E286EB8EC07F03D50CCEC05F053
:100538003D50140D01013BD828C0DEFF29C0DDFF66
:10054800010E3C6E3D50140D32D83D50140D000E76
:100558003A6E010E3B6EF3503A26000E3B223C5099
:10056800020DF3503A24E16E000E3B20E26EDECF1E
:10057800E6FFDDCFE5FF3C2A090E3C64E3D73D509A
:100588007DEC01F01BD828C0DEFF29C0DDFF16D89E
:100598003D50020DF3500001800FE16EE26ADECF9C
:1005A800E6FFDDCFE5FF3D2AA5D783681200000EE0
:1005B800F324D96EDA6A010EDA2212003D50020DD8
:1005C800F350010FD96EDA6A12003DC03AF0010EFD
:1005D8003B6E3A2A010C4A6A4B6A4C6AD190010E6A
:1005E8002D6EF40E2C6EA6EC07F05EEC07F0E6EC30
:1005F80007F0C0EC03F024EC04F07CEC02F0D180AE
:1006080034EC00F05CEC03F0040080AAF6EC00F097
:100618004A2A4B2A4C2A130E4C6403D04C6A78ECB5
:1006280004F0310E4B6421D04B6A4D6A4DC048F03E
:100638001FC049F0482A02D0D8904932482EFCD72A
:1006480049A00FD04D50020DF3500001900FD96E04
:10065800DA6ADECF28F0DDCF29F04DC02AF0A0EC11
:1006680006F04D2A070E4D64E1D7C70E4A64C8D775
:100678004A6A212A215004E0010E216E00015C82A1
:100688004D6A4D507DEC01F04D50020DF350010FB5
:10069800D96EDA6A28C0DEFF29C0DDFF10500001DC
:1006A800CC6F0FC0CDF04D2A070E4D64EAD7A8D7FE
:1006B8002A6A2A6A55D8581426E052D81A1409E02A
:1006C8004FD81B1406E04CD81C1403E049D820125C
:1006D8001AD046D81A1413E143D81B1410E140D895
:1006E8001C140DE12AC028F0010E296E282A02D018
:1006F800D8902936282EFCD7291C201604D01BC0D8
:100708001CF01AC01BF02A2A070E2A64D3D720B07F
:1007180002D0828001D0829020B202D0828201D0A1
:10072800829220B402D0828401D0829420B602D072
:10073800828C01D0829C20B802D0828E01D0829E09
:1007480020BA02D0808201D0809220BC02D080845E
:1007580001D0809420BE02D08086120080961200BC
:100768002AC028F0010E296E282A02D0D8902936EE
:10077800282EFCD729501200476A476A4750310F84
:10078800D96EDA6ADF6A472A150E4764F7D75A6ABC
:10079800050E596E160E5B6E5B0E286E310E296EB5
:1007A800000E2A6E0F0E2A6E5F0E29642A6A590EF1
:1007B80072EC06F031C030F0040E30260F0E39D836
:1007C8004E6E31C030F0040E3026F00E32D84F6E27
:1007D80032C030F0040E30260F0E2BD8506E32C0C7
:1007E80030F0040E3026F00E24D8516E33C030F0AD
:1007F800040E30260F0E1DD8526E33C030F0040E92
:100808003026F00E16D8536E34C030F0040E302661
:100818000F0E0FD8546E34C030F0040E3026F00E90
:1008280008D8556E45C026F046C027F0260E91EF31
:1008380007F030163050310FD96EDA6ADF501200E7
:10084800336A336A070E336401D0070C47D802D0E5
:10085800D8903136302EFCD73150201423E03ED8C2
:1008680002D0D8903136302EFCD73150581233B0E0
:1008780007D033C030F029D8F00E3116080E06D054
:1008880033C030F022D80F0E3116800E311233C02B
:1008980032F0D89032323250160FD96EDA6A3150AF
:1008A800DF1211D083681AD802D0D8903136302E92
:1008B800FCD7311C836E296A640E286EB8EC07F0E9
:1008C800335019EC05F0332ABDD7D8903032305068
:1008D800160FD96EDA6ADF50316E120033C030F06D
:1008E800010E316E302A010C3D6A3D6A3DC03AF076
:1008F800010E3B6E3A2A02D0D8903B363A2EFCD7EE
:100908003B50201437E03D50020DF3500001600FBA
:10091800D96EDA6ADE2A000EDD2231D8DECF3AF04F
:10092800DDCF3BF02C0E3A5C010E3B5823E327D871
:10093800DE6ADD6A3C6A3D50020DF350900FD96EB5
:10094800DA6ADECF28F0DDCF29F03DC02AF0A0EC2E
:1009580006F03C2A090E3C64EED73D507DEC01F0D0
:100968003D50020DF350010FD96EDA6A28C0DEFF40
:1009780029C0DDFF3D2A070E3D64B8D7070C3D505E
:10098800020DF350600FD96EDA6A120057C0CAF030
:1009980056C0CBF02CD020500001B815CC6F39D000
:1009A80002EC08F036D00001000E2F6ECC0E2E6E31
:1009B800F4EC07F02ED00001CC0ED7EC07F029D0CC
:1009C8000001CC0EC8EC07F024D00001B80E3FECB3
:1009D80007F01FD00001B80E1EEC07F01AD0000176
:1009E800B80E79EC07F015D027EC08F012D0575064
:1009F800D2E0010AD5E0030AD6E0010ADCE0070AE2
:100A0800DFE0010AE2E0030AE5E0010AE8E0AD0AF6
:100A1800EBE00001CA0E286E5650020F92EC05F06A
:100A28002D6A0A0E2C6EA6EF07F0E8CF2FF0D59EA0
:100A3800D80ED76EEF0ED66EB190B36AB26AA09296
:100A48009D965C94B180D58EC00EF2125CA4FED740
:100A5800B190D59E2F50020DF3500001700FD96E42
:100A6800DA6ADE6ADD6AB250B3CF2CF02D6A2CC088
:100A78002DF02C6A2C122F50020DF350700FD96EE6
:100A8800DA6A2CC0DEFF2DC0DDFF2F50A80FD96E0B
:100A9800DA6AB31CDF6E2F50B00FD96EDA6AB21C57
:100AA800DF6E2F5000EF02F0E8CF2CF03F0EF21669
:100AB8002BD02C50D96EDA6ADECF2AF0DDCF2BF09E
:100AC8002BC02AF02B6A2A50756E2C50D96EDA6A20
:100AD800DF50746E2C50D96EDA6ADE2A000EDD22E1
:100AE8002950D96EDA6ADF50736E292A3F0E7F16B5
:100AF8007F84550E7E6EAA0E7E6E7F8200F07FB2D6
:100B0800FED700F0040E7F162850D96EDA6ADF0689
:100B1800FF0EDF62CED7C00EF212C00CE8CF2DF068
:100B28002F6A94869498949A8286828A82882E6AFA
:100B380024D02F6A82B6FED72850D96EDA6ADF50E1
:100B4800296E2FC02AF0800E2B6E2C6A2A2A03D019
:100B58002C342C322B322A2EFBD72B50291402E0AE
:100B6800828801D08298829A82A6FED7828A2F2A0A
:100B7800070E2F64DFD7282A2E2A2D502E5CD9E3A2
:100B880000D094869488949A8286828A82881200F9
:100B9800E8CF2FF02C6AB190B368F50EB26ED59EEF
:100BA800D76AD66AA0829D965C96B1805CA6FED76D
:100BB8005C96D76AD66AB1902F50A80FD96EDA6AB8
:100BC800DF50B36E2F50B00FD96EDA6ADF50B26EB5
:100BD8005C96B180D58E5CA6FED700015C96A0928B
:100BE8009D86D650D7CF2AF02B6A2AC02BF02A6AC6
:100BF8002A102D6E2B502E6E2DC028F02EC029F0F5
:100C08001200E8CF2DF02F6AC5EC05F028C0D9FFF7
:100C180029C0DAFFDF6A2E6A27D02F6A82B6FED78C
:100C280082A812D02FC02AF0800E2B6E2C6A2A2A96
:100C380003D02C342C322B322A2EFBD728C0D9FFD4
:100C480029C0DAFF2B50DF12829A82A6FED7828A49
:100C58002F2A070E2F64E2D7284A292A28C0D9FF4D
:100C680029C0DAFFDF6A2E2A2D502E5CD6E3C5EFA5
:100C780005F0E8CF2AF0285025D84E6E14D84F6ECC
:100C8800282A28501FD8506E0ED8516E282A28506E
:100C980019D8526E08D8536E282A285013D8546E83
:100CA80002D8556E12002850D96EDA6ADF50296EC4
:100CB800293A0F0E291629162A502924D96EDA6ADC
:100CC800DF501200D96EDA6ADF50296E0F0E29162E
:100CD8002A502924D96EDA6ADF501200E8CF2DF0A5
:100CE8002D50D96EDA6ADECF2BF0DDCF2CF02CC078
:100CF8002BF02C6A2B50756E2D50D96EDA6ADF50A6
:100D0800746E2D50D96EDA6ADE2A000EDD22736AFF
:100D18003F0E7F167F8000F029C0D9FF2AC0DAFF76
:100D280073CFDFFF294A2A2A2850D96EDA6ADF06EC
:100D3800FF0EDF62D5D7FF0C2A50140D000E2B6E64
:100D4800010E2C6EF3502B26000E2C222A50A00FD9
:100D5800D96EDA6ADF50020DF3502B24D96E000EDB
:100D68002C20DA6E28C0DEFF29C0DDFF2A50A00F34
:100D7800D96EDA6ADF2A2A50A00FD96EDA6A090E0C
:100D8800DF64090C2A50A00FD96EDA6A000EDF6EF4
:100D9800000CE8CF2AF02B6A8196818281842A5040
:100DA800D96EDA6ADF502B6E296A17D02C6A2BAEFF
:100DB80002D0818801D08198819081808190D890DB
:100DC8002B362C2A070E2C64F2D72A50D96EDA6AF1
:100DD800D92ADA6ADF502B6E292A2850295CE6E3E3
:100DE800819281828192120001EE00F0A00EEE6ADB
:100DF800E806FDE100EE60F08C0EEE6AE806FDE123
:100E08005C6A00EE01F0270EEE6AE806FDE1280EA6
:100E1800F66E100EF76E000EF86E00EE4EF010EE45
:100E28000EF00900F5CFEEFFE550E150FAE10001C0
:100E3800EFEF02F0E8CF30F05A6A190E596E020E41
:100E48005B6E5B0E286E30C029F0590E58EC05F029
:100E58003050D96EDA6ADF50266E302A3050D96E9B
:100E6800DA6ADF50276E260E91EC07F026C0CAF02A
:100E780027C0CBF01200E8CF30F05A6A050E596E41
:100E8800040E5B6E5B0E286E30C029F0590E58ECCC
:100E980005F0220E2E6E000E2F6E0F0E2F6E5F0EB7
:100EA8002E642F6AF4EC07F0220E286E0001DC0E87
:100EB8003DEF06F00F015C6B5D6BF296926A936AE8
:100EC800946A956A966A8368828082828284828C18
:100ED800828E808280848086938A94869488948A7D
:100EE8008286828A8288928A1200E8CF2FF05A6A14
:100EF800090E596E100E5B6E5B0E286E2FC029F01E
:100F0800590E58EC05F00001DC0EC8EC07F0220E73
:100F1800286E0001DC0E3DEF06F0E8CF2FF02D6AB9
:100F28002E6A2F50D96EDA6ADF502E6E2F50D96E86
:100F3800DA6AD92ADA6ADF502D6E020E286E2D0E73
:100F4800CDEF06F02E6A2F6A08D0030E296EE50E43
:100F5800286EB8EC07F02E4A2F2A2C502E5C2D5004
:100F68002F58D8B01200F1D7FB0E2826FF0E2922E1
:100F78002A6A2B6A02D02A4A2B2A28502A5C29502E
:100F88002B58D8B01200F7D7E8CF2EF05A6A090EBE
:100F9800596E100E5B6E5B0E286E2EC029F02A6A01
:100FA800590E72EF06F0E8CF2EF05A6A190E596EF4
:100FB800020E5B6E5B0E286E2EC029F02A6A590E4F
:100FC80072EF06F0C00EF212F28AF294D59CD59A0E
:100FD800D80ED76EEF0ED66ED58E840EB16E840CF9
:100FE8005A6A050E596E040E5B6E5B0E286E2EC093
:100FF80029F02FC02AF0590E72EF06F024EC04F005
:1010080016C0CCF017C0CDF018C0CEF019C0CFF084
:101018001200C950C69CC69E1DC0C9FF1D2A1200D9
:101028000A0A0A0A0A0A0A0AFFFFFF0500043C0E18
:10103800CF6EAF0ECE6EAF0CD59E00015C8612004F
:0810480000015C841200FFD7D7
:020000040030CA
:020000001503E6
:020003002200D9
:02000B00E00013
:00000001FF
